{"abi":[{"type":"function","name":"_msgSender","inputs":[],"outputs":[{"name":"sender","type":"address","internalType":"address"}],"stateMutability":"view"},{"type":"function","name":"_msgValue","inputs":[],"outputs":[{"name":"value","type":"uint256","internalType":"uint256"}],"stateMutability":"pure"},{"type":"function","name":"_world","inputs":[],"outputs":[{"name":"","type":"address","internalType":"address"}],"stateMutability":"view"},{"type":"function","name":"registerDelegation","inputs":[{"name":"delegatee","type":"address","internalType":"address"},{"name":"delegationControlId","type":"bytes32","internalType":"ResourceId"},{"name":"initCallData","type":"bytes","internalType":"bytes"}],"outputs":[],"stateMutability":"nonpayable"},{"type":"function","name":"registerFunctionSelector","inputs":[{"name":"systemId","type":"bytes32","internalType":"ResourceId"},{"name":"systemFunctionSignature","type":"string","internalType":"string"}],"outputs":[{"name":"worldFunctionSelector","type":"bytes4","internalType":"bytes4"}],"stateMutability":"nonpayable"},{"type":"function","name":"registerNamespace","inputs":[{"name":"namespaceId","type":"bytes32","internalType":"ResourceId"}],"outputs":[],"stateMutability":"nonpayable"},{"type":"function","name":"registerNamespaceDelegation","inputs":[{"name":"namespaceId","type":"bytes32","internalType":"ResourceId"},{"name":"delegationControlId","type":"bytes32","internalType":"ResourceId"},{"name":"initCallData","type":"bytes","internalType":"bytes"}],"outputs":[],"stateMutability":"nonpayable"},{"type":"function","name":"registerRootFunctionSelector","inputs":[{"name":"systemId","type":"bytes32","internalType":"ResourceId"},{"name":"worldFunctionSignature","type":"string","internalType":"string"},{"name":"systemFunctionSelector","type":"bytes4","internalType":"bytes4"}],"outputs":[{"name":"worldFunctionSelector","type":"bytes4","internalType":"bytes4"}],"stateMutability":"nonpayable"},{"type":"function","name":"registerSystem","inputs":[{"name":"systemId","type":"bytes32","internalType":"ResourceId"},{"name":"system","type":"address","internalType":"contract WorldContextConsumer"},{"name":"publicAccess","type":"bool","internalType":"bool"}],"outputs":[],"stateMutability":"nonpayable"},{"type":"function","name":"registerSystemHook","inputs":[{"name":"systemId","type":"bytes32","internalType":"ResourceId"},{"name":"hookAddress","type":"address","internalType":"contract ISystemHook"},{"name":"enabledHooksBitmap","type":"uint8","internalType":"uint8"}],"outputs":[],"stateMutability":"nonpayable"},{"type":"function","name":"supportsInterface","inputs":[{"name":"interfaceId","type":"bytes4","internalType":"bytes4"}],"outputs":[{"name":"","type":"bool","internalType":"bool"}],"stateMutability":"pure"},{"type":"function","name":"unregisterSystemHook","inputs":[{"name":"systemId","type":"bytes32","internalType":"ResourceId"},{"name":"hookAddress","type":"address","internalType":"contract ISystemHook"}],"outputs":[],"stateMutability":"nonpayable"},{"type":"event","name":"Store_DeleteRecord","inputs":[{"name":"tableId","type":"bytes32","indexed":true,"internalType":"ResourceId"},{"name":"keyTuple","type":"bytes32[]","indexed":false,"internalType":"bytes32[]"}],"anonymous":false},{"type":"event","name":"Store_SetRecord","inputs":[{"name":"tableId","type":"bytes32","indexed":true,"internalType":"ResourceId"},{"name":"keyTuple","type":"bytes32[]","indexed":false,"internalType":"bytes32[]"},{"name":"staticData","type":"bytes","indexed":false,"internalType":"bytes"},{"name":"encodedLengths","type":"bytes32","indexed":false,"internalType":"PackedCounter"},{"name":"dynamicData","type":"bytes","indexed":false,"internalType":"bytes"}],"anonymous":false},{"type":"event","name":"Store_SpliceDynamicData","inputs":[{"name":"tableId","type":"bytes32","indexed":true,"internalType":"ResourceId"},{"name":"keyTuple","type":"bytes32[]","indexed":false,"internalType":"bytes32[]"},{"name":"start","type":"uint48","indexed":false,"internalType":"uint48"},{"name":"deleteCount","type":"uint40","indexed":false,"internalType":"uint40"},{"name":"encodedLengths","type":"bytes32","indexed":false,"internalType":"PackedCounter"},{"name":"data","type":"bytes","indexed":false,"internalType":"bytes"}],"anonymous":false},{"type":"event","name":"Store_SpliceStaticData","inputs":[{"name":"tableId","type":"bytes32","indexed":true,"internalType":"ResourceId"},{"name":"keyTuple","type":"bytes32[]","indexed":false,"internalType":"bytes32[]"},{"name":"start","type":"uint48","indexed":false,"internalType":"uint48"},{"name":"data","type":"bytes","indexed":false,"internalType":"bytes"}],"anonymous":false},{"type":"error","name":"PackedCounter_InvalidLength","inputs":[{"name":"length","type":"uint256","internalType":"uint256"}]},{"type":"error","name":"Slice_OutOfBounds","inputs":[{"name":"data","type":"bytes","internalType":"bytes"},{"name":"start","type":"uint256","internalType":"uint256"},{"name":"end","type":"uint256","internalType":"uint256"}]},{"type":"error","name":"Store_IndexOutOfBounds","inputs":[{"name":"length","type":"uint256","internalType":"uint256"},{"name":"accessedIndex","type":"uint256","internalType":"uint256"}]},{"type":"error","name":"Store_InvalidResourceType","inputs":[{"name":"expected","type":"bytes2","internalType":"bytes2"},{"name":"resourceId","type":"bytes32","internalType":"ResourceId"},{"name":"resourceIdString","type":"string","internalType":"string"}]},{"type":"error","name":"Store_InvalidSplice","inputs":[{"name":"startWithinField","type":"uint40","internalType":"uint40"},{"name":"deleteCount","type":"uint40","internalType":"uint40"},{"name":"fieldLength","type":"uint40","internalType":"uint40"}]},{"type":"error","name":"World_AccessDenied","inputs":[{"name":"resource","type":"string","internalType":"string"},{"name":"caller","type":"address","internalType":"address"}]},{"type":"error","name":"World_AlreadyInitialized","inputs":[]},{"type":"error","name":"World_CallbackNotAllowed","inputs":[{"name":"functionSelector","type":"bytes4","internalType":"bytes4"}]},{"type":"error","name":"World_DelegationNotFound","inputs":[{"name":"delegator","type":"address","internalType":"address"},{"name":"delegatee","type":"address","internalType":"address"}]},{"type":"error","name":"World_FunctionSelectorAlreadyExists","inputs":[{"name":"functionSelector","type":"bytes4","internalType":"bytes4"}]},{"type":"error","name":"World_FunctionSelectorNotFound","inputs":[{"name":"functionSelector","type":"bytes4","internalType":"bytes4"}]},{"type":"error","name":"World_InsufficientBalance","inputs":[{"name":"balance","type":"uint256","internalType":"uint256"},{"name":"amount","type":"uint256","internalType":"uint256"}]},{"type":"error","name":"World_InterfaceNotSupported","inputs":[{"name":"contractAddress","type":"address","internalType":"address"},{"name":"interfaceId","type":"bytes4","internalType":"bytes4"}]},{"type":"error","name":"World_InvalidResourceId","inputs":[{"name":"resourceId","type":"bytes32","internalType":"ResourceId"},{"name":"resourceIdString","type":"string","internalType":"string"}]},{"type":"error","name":"World_InvalidResourceType","inputs":[{"name":"expected","type":"bytes2","internalType":"bytes2"},{"name":"resourceId","type":"bytes32","internalType":"ResourceId"},{"name":"resourceIdString","type":"string","internalType":"string"}]},{"type":"error","name":"World_ResourceAlreadyExists","inputs":[{"name":"resourceId","type":"bytes32","internalType":"ResourceId"},{"name":"resourceIdString","type":"string","internalType":"string"}]},{"type":"error","name":"World_ResourceNotFound","inputs":[{"name":"resourceId","type":"bytes32","internalType":"ResourceId"},{"name":"resourceIdString","type":"string","internalType":"string"}]},{"type":"error","name":"World_SystemAlreadyExists","inputs":[{"name":"system","type":"address","internalType":"address"}]},{"type":"error","name":"World_UnlimitedDelegationNotAllowed","inputs":[]}],"bytecode":{"object":"0x608060405234801561001057600080fd5b50614f22806100206000396000f3fe608060405234801561001057600080fd5b50600436106100d45760003560e01c8063742d611811610081578063bfdfaff71161005b578063bfdfaff7146101e6578063d5f8337f146101f9578063e1af802c1461020c57600080fd5b8063742d6118146101ad578063a92813ad146101c0578063b29e4089146101d357600080fd5b806326d98102116100b257806326d98102146101435780633350b6a91461018757806345ec93541461019a57600080fd5b806301ffc9a7146100d9578063119df25f146101015780631d2257ba1461012e575b600080fd5b6100ec6100e7366004614575565b610214565b60405190151581526020015b60405180910390f35b6101096102ad565b60405173ffffffffffffffffffffffffffffffffffffffff90911681526020016100f8565b61014161013c36600461466e565b6102bc565b005b6101566101513660046146c7565b61033d565b6040517fffffffff0000000000000000000000000000000000000000000000000000000090911681526020016100f8565b61014161019536600461470e565b610464565b604051601f1936013581526020016100f8565b6101566101bb366004614755565b6106f1565b6101416101ce3660046147ac565b6107df565b6101416101e13660046147dc565b61086e565b6101416101f43660046147f5565b610960565b61014161020736600461482f565b610a79565b610109610af3565b60007fffffffff0000000000000000000000000000000000000000000000000000000082167fb5dee1270000000000000000000000000000000000000000000000000000000014806102a757507fffffffff0000000000000000000000000000000000000000000000000000000082167f01ffc9a700000000000000000000000000000000000000000000000000000000145b92915050565b60006102b7610afd565b905090565b6102ce6102c76102ad565b8484610b2f565b6102d782610c8b565b80156102e4575060008151115b156103385760006102f483610ca7565b509050610321817faf58547700000000000000000000000000000000000000000000000000000000610db7565b61033561032c6102ad565b84846000610e37565b50505b505050565b60006103508361034b6102ad565b610e64565b600061038661035f8560101b90565b7fffffffffffffffffffffffffffff00000000000000000000000000000000000016610f1f565b9050600061039b61039686610fd1565b610f1f565b905060008282866040516020016103b493929190614890565b60405160208183030381529060405290508080519060200120935060006103da85610fe8565b9050801561043d576040517f3d1d1ae20000000000000000000000000000000000000000000000000000000081527fffffffff00000000000000000000000000000000000000000000000000000000861660048201526024015b60405180910390fd5b8551602087012061044f8689836110ef565b610459868461120f565b505050505092915050565b7f7379000000000000000000000000000000000000000000000000000000000000837fffff000000000000000000000000000000000000000000000000000000000000161461050d577f7379000000000000000000000000000000000000000000000000000000000000836104d885611348565b6040517f5c30fb6f00000000000000000000000000000000000000000000000000000000815260040161043493929190614932565b610537827fb5dee12700000000000000000000000000000000000000000000000000000000610db7565b600061054284610fd1565b7fffffffffffffffffffffffffffffffff0000000000000000000000000000000016036105a7578261057384611348565b6040517fe4ac069e000000000000000000000000000000000000000000000000000000008152600401610434929190614973565b60006105b2836114c4565b905080158015906105c35750838114155b15610612576040517fc0b7074100000000000000000000000000000000000000000000000000000000815273ffffffffffffffffffffffffffffffffffffffff84166004820152602401610434565b7dffffffffffffffffffffffffffff0000000000000000000000000000000084167f6e730000000000000000000000000000000000000000000000000000000000001761065e816115cb565b6106705761066b8161086e565b61067c565b61067c8161034b6102ad565b6000610687866116c5565b905073ffffffffffffffffffffffffffffffffffffffff8116156106bd576106ae816117b8565b6106b882826118b1565b6106c8565b6106c88660016119c9565b6106d3868686611ad9565b6106dd8587611bd1565b6106e982866001611c96565b505050505050565b604080517f6e730000000000000000000000000000000000000000000000000000000000006020820152600060228201819052603082018190529161075191016040516020818303038152906040526107499061498c565b61034b6102ad565b5081516020830120600061076482610fe8565b905080156107c2576040517f3d1d1ae20000000000000000000000000000000000000000000000000000000081527fffffffff0000000000000000000000000000000000000000000000000000000083166004820152602401610434565b6107cd8286856110ef565b6107d7828561120f565b509392505050565b6107eb8261034b6102ad565b60408051613a3160f11b60208201527f776f726c6400000000000000000000000000000000000000000000000000000060228201527f53797374656d486f6f6b73000000000000000000000000000000000000000000603082015261086a91016040516020818303038152906040526108639061498c565b8383611d7a565b5050565b7f6e73000000000000000000000000000000000000000000000000000000000000817fffff00000000000000000000000000000000000000000000000000000000000016146108e2577f6e73000000000000000000000000000000000000000000000000000000000000816104d883611348565b6108eb816115cb565b1561092e57806108fa82611348565b6040517f0dc28f6a000000000000000000000000000000000000000000000000000000008152600401610434929190614973565b6109398160016119c9565b61094a816109456102ad565b611ebb565b61095d816109566102ad565b6001611c96565b50565b7f6e73000000000000000000000000000000000000000000000000000000000000837fffff00000000000000000000000000000000000000000000000000000000000016146109d4577f6e73000000000000000000000000000000000000000000000000000000000000836104d885611348565b6109dd82610c8b565b610a13576040517f71ee9e8100000000000000000000000000000000000000000000000000000000815260040160405180910390fd5b610a1f8361034b6102ad565b6000610a2a83610ca7565b509050610a57817faf58547700000000000000000000000000000000000000000000000000000000610db7565b610a618484611fe1565b815115610a735761033561032c6102ad565b50505050565b610aa3827f540fbfa800000000000000000000000000000000000000000000000000000000610db7565b610aaf8361034b6102ad565b610338837fffffffffffffffffffffffffffffffffffffffff000000000000000000000000606085901b166bff0000000000000000000000605885901b161761208d565b60006102b761218e565b7fffffffffffffffffffffffffffffffffffffffffffffffffffffffffffffffcc36013560601c80610b2c5750335b90565b6040805160028082526060820183526000926020830190803683370190505090508373ffffffffffffffffffffffffffffffffffffffff1660001b81600081518110610b7d57610b7d6149d1565b6020026020010181815250508273ffffffffffffffffffffffffffffffffffffffff1660001b81600181518110610bb657610bb66149d1565b60209081029190910181019190915260408051613a3160f11b928101929092527f776f726c6400000000000000000000000000000000000000000000000000000060228301527f5573657244656c65676174696f6e436f000000000000000000000000000000006030830152610a7391015b604051602081830303815290604052610c409061498c565b82600085604051602001610c5691815260200190565b60408051601f198184030181529190527e200100200000000000000000000000000000000000000000000000000000006121da565b600081151580156102a75750610ca0826121ef565b1592915050565b60408051600180825281830190925260009182918291602080830190803683370190505090508381600081518110610ce157610ce16149d1565b60209081029190910181019190915260408051613a3160f11b818401527f776f726c6400000000000000000000000000000000000000000000000000000060228201527f53797374656d73000000000000000000000000000000000000000000000000006030820152815180820390930183528101905260009081908190610d9290610d6c9061498c565b857e1502001401000000000000000000000000000000000000000000000000000061226a565b5050602081015160349091015160609190911c9860f89190911c975095505050505050565b610dc18282612372565b61086a576040517f74b5e6ff00000000000000000000000000000000000000000000000000000000815273ffffffffffffffffffffffffffffffffffffffff831660048201527fffffffff0000000000000000000000000000000000000000000000000000000082166024820152604401610434565b6060600080610e4887878787612395565b9150915081610e5a57610e5a81612579565b9695505050505050565b73ffffffffffffffffffffffffffffffffffffffff8116610ec67f6e730000000000000000000000000000000000000000000000000000000000007dffffffffffffffffffffffffffff00000000000000000000000000000000851617612581565b73ffffffffffffffffffffffffffffffffffffffff161461086a57610eea82611348565b816040517fd787b737000000000000000000000000000000000000000000000000000000008152600401610434929190614a00565b606060005b6010811015610f8e577fffffffffffffffffffffffffffffffff000000000000000000000000000000008316600882021b7fff000000000000000000000000000000000000000000000000000000000000001615610f8e5780610f8681614a67565b915050610f24565b604080517fffffffffffffffffffffffffffffffff000000000000000000000000000000008516602082015281516030909101909152818152805b949350505050565b6000610fdf60706010614a9f565b9190911b919050565b60408051600180825281830190925260009182919060208083019080368337019050509050827bffffffffffffffffffffffffffffffffffffffffffffffffffffffff191681600081518110611040576110406149d1565b60209081029190910181019190915260408051613a3160f11b818401527f776f726c6400000000000000000000000000000000000000000000000000000060228201527f46756e6374696f6e53656c6563746f720000000000000000000000000000000060308201528151808203909301835281019052600090610fc9906110c79061498c565b8360007e24020020040000000000000000000000000000000000000000000000000000612665565b60006110fb838361269b565b60408051600180825281830190925291925060009160609183919060208083019080368337019050509050867bffffffffffffffffffffffffffffffffffffffffffffffffffffffff191681600081518110611159576111596149d1565b60209081029190910181019190915260408051613a3160f11b818401527f776f726c6400000000000000000000000000000000000000000000000000000060228201527f46756e6374696f6e53656c6563746f720000000000000000000000000000000060308201528151808203909301835281019052611206906111dd9061498c565b828686867e240200200400000000000000000000000000000000000000000000000000006126f2565b50505050505050565b6060600061121c836129ed565b90506000611229846129fd565b6040805160018082528183019092529192506000919060208083019080368337019050509050857bffffffffffffffffffffffffffffffffffffffffffffffffffffffff191681600081518110611282576112826149d1565b602090810291909101810191909152604080517f6f74000000000000000000000000000000000000000000000000000000000000818401527f776f726c6400000000000000000000000000000000000000000000000000000060228201527f46756e6374696f6e5369676e6174757200000000000000000000000000000000603082015281518082039093018352810190526106e9906113219061498c565b828686867c01000000000000000000000000000000000000000000000000000000006126f2565b606081601081901b600061135b83610fd1565b9050827fffffffffffffffffffffffffffff0000000000000000000000000000000000008316156113ae577fffffffffffffffffffffffffffff00000000000000000000000000000000000083166113d0565b7f524f4f545f4e414d4553504143450000000000000000000000000000000000005b7fffffffffffffffffffffffffffffffff000000000000000000000000000000008316156113fe5782611420565b7f524f4f545f4e414d4500000000000000000000000000000000000000000000005b6040517fffff00000000000000000000000000000000000000000000000000000000000090931660208401527f3a00000000000000000000000000000000000000000000000000000000000000602284018190527fffffffffffffffffffffffffffffffff00000000000000000000000000000000928316602385015260338401521660348201526044016040516020818303038152906040529350505050919050565b604080516001808252818301909252600091829190602080830190803683370190505090508273ffffffffffffffffffffffffffffffffffffffff1660001b81600081518110611516576115166149d1565b60209081029190910181019190915260408051613a3160f11b928101929092527f776f726c6400000000000000000000000000000000000000000000000000000060228301527f53797374656d52656769737472790000000000000000000000000000000000006030830152600091610fc991015b6040516020818303038152906040526115a39061498c565b8360007e20010020000000000000000000000000000000000000000000000000000000612665565b604080516001808252818301909252600091829190602080830190803683370190505090508281600081518110611604576116046149d1565b60209081029190910181019190915260408051613a3160f11b928101929092527f73746f726500000000000000000000000000000000000000000000000000000060228301527f5265736f7572636549647300000000000000000000000000000000000000000060308301526000916116b991015b6040516020818303038152906040526116919061498c565b8360007e01010001000000000000000000000000000000000000000000000000000000612665565b9050610fc98160f81c90565b6040805160018082528183019092526000918291906020808301908036833701905050905082816000815181106116fe576116fe6149d1565b60209081029190910181019190915260408051613a3160f11b818401527f776f726c6400000000000000000000000000000000000000000000000000000060228201527f53797374656d7300000000000000000000000000000000000000000000000000603082015281518082039093018352810190526000906117ad906117859061498c565b8360007e15020014010000000000000000000000000000000000000000000000000000612665565b60601c949350505050565b604080516001808252818301909252600091602080830190803683370190505090508173ffffffffffffffffffffffffffffffffffffffff1660001b81600081518110611807576118076149d1565b60209081029190910181019190915260408051613a3160f11b818401527f776f726c6400000000000000000000000000000000000000000000000000000060228201527f53797374656d52656769737472790000000000000000000000000000000000006030820152815180820390930183528101905261086a9061188b9061498c565b827e20010020000000000000000000000000000000000000000000000000000000612a26565b60408051600280825260608201835260009260208301908036833701905050905082816000815181106118e6576118e66149d1565b6020026020010181815250508173ffffffffffffffffffffffffffffffffffffffff1660001b8160018151811061191f5761191f6149d1565b60209081029190910181019190915260408051613a3160f11b818401527f776f726c6400000000000000000000000000000000000000000000000000000060228201527f5265736f7572636541636365737300000000000000000000000000000000000060308201528151808203909301835281019052610338906119a39061498c565b827e01010001000000000000000000000000000000000000000000000000000000612a26565b6040805160018082528183019092526000916020808301908036833701905050905082816000815181106119ff576119ff6149d1565b60209081029190910181019190915260408051613a3160f11b928101929092527f73746f726500000000000000000000000000000000000000000000000000000060228301527f5265736f75726365496473000000000000000000000000000000000000000000603083015261033891015b604051602081830303815290604052611a899061498c565b82600085604051602001611aa491151560f81b815260010190565b60408051601f198184030181529190527e010100010000000000000000000000000000000000000000000000000000006121da565b6000611ae58383612ce6565b604080516001808252818301909252919250600091606091839190602080830190803683370190505090508681600081518110611b2457611b246149d1565b60209081029190910181019190915260408051613a3160f11b818401527f776f726c6400000000000000000000000000000000000000000000000000000060228201527f53797374656d73000000000000000000000000000000000000000000000000006030820152815180820390930183528101905261120690611ba89061498c565b828686867e150200140100000000000000000000000000000000000000000000000000006126f2565b604080516001808252818301909252600091602080830190803683370190505090508273ffffffffffffffffffffffffffffffffffffffff1660001b81600081518110611c2057611c206149d1565b60209081029190910181019190915260408051613a3160f11b928101929092527f776f726c6400000000000000000000000000000000000000000000000000000060228301527f53797374656d526567697374727900000000000000000000000000000000000060308301526103389101610c28565b6040805160028082526060820183526000926020830190803683370190505090508381600081518110611ccb57611ccb6149d1565b6020026020010181815250508273ffffffffffffffffffffffffffffffffffffffff1660001b81600181518110611d0457611d046149d1565b60209081029190910181019190915260408051613a3160f11b928101929092527f776f726c6400000000000000000000000000000000000000000000000000000060228301527f5265736f757263654163636573730000000000000000000000000000000000006030830152610a739101611a71565b6000611d868484612d29565b90506000815167ffffffffffffffff811115611da457611da46145b2565b604051908082528060200260200182016040528015611dcd578160200160208202803683370190505b5090506000805b8351811015611eac578473ffffffffffffffffffffffffffffffffffffffff16611e25858381518110611e0957611e096149d1565b60200260200101516affffffffffffffffffffff191660601c90565b73ffffffffffffffffffffffffffffffffffffffff1614611ea457838181518110611e5257611e526149d1565b6020026020010151838381518110611e6c57611e6c6149d1565b7fffffffffffffffffffffffffffffffffffffffffff0000000000000000000000909216602092830291909101909101526001909101905b600101611dd4565b508082526106e9868684612d94565b604080516001808252818301909252600091602080830190803683370190505090508281600081518110611ef157611ef16149d1565b60209081029190910181019190915260408051613a3160f11b818401527f776f726c6400000000000000000000000000000000000000000000000000000060228201527f4e616d6573706163654f776e65720000000000000000000000000000000000006030820152815180820390930183528101905261033890611f759061498c565b6040517fffffffffffffffffffffffffffffffffffffffff000000000000000000000000606086901b166020820152839060009060340160408051601f198184030181529190527e140100140000000000000000000000000000000000000000000000000000006121da565b604080516001808252818301909252600091602080830190803683370190505090508281600081518110612017576120176149d1565b60209081029190910181019190915260408051613a3160f11b928101929092527f776f726c6400000000000000000000000000000000000000000000000000000060228301527f4e616d65737061636544656c656761740000000000000000000000000000000060308301526103389101610c28565b6040805160018082528183019092526000916020808301908036833701905050905082816000815181106120c3576120c36149d1565b60209081029190910181019190915260408051613a3160f11b818401527f776f726c6400000000000000000000000000000000000000000000000000000060228201527f53797374656d486f6f6b7300000000000000000000000000000000000000000060308201528151808203909301835281019052610338906121479061498c565b6040517fffffffffffffffffffffffffffffffffffffffffff0000000000000000000000851660208201528390600090603501604051602081830303815290604052612deb565b7f629a4c26e296b22a8e0856e9f6ecb2d1008d7e00081111962cd175fa7488e1755460009073ffffffffffffffffffffffffffffffffffffffff16806121d5573391505090565b919050565b61033585856121e98487612eb6565b85612ef1565b604080517f737900000000000000000000000000000000000000000000000000000000000060208201526000602282018190527f756e6c696d697465640000000000000000000000000000000000000000000000603083015291016040516020818303038152906040526122629061498c565b909114919050565b606060006060600061227b8561314a565b905061228887878361316d565b93506000612295866131a6565b90508015612367576122a788886131e3565b935066ffffffffffffff841667ffffffffffffffff8111156122cb576122cb6145b2565b6040519080825280601f01601f1916602001820160405280156122f5576020820181803683370190505b5092506020830160005b828160ff1610156123645760006123178b8b846131f6565b90506000612334888460ff166028026038011c64ffffffffff1690565b90506123438282600087613276565b61234d8185614a9f565b93505050808061235c90614ab2565b9150506122ff565b50505b505093509350939050565b600061237d8361339f565b801561238e575061238e83836133f8565b9392505050565b6000606060006123a4866134c8565b905060005b81518110156124815760008282815181106123c6576123c66149d1565b602002602001015190506123f26001826affffffffffffffffffffff19166135a990919063ffffffff16565b1561246e576040517fc3323031000000000000000000000000000000000000000000000000000000008152606082901c9063c33230319061243b908c908c908c90600401614ad1565b600060405180830381600087803b15801561245557600080fd5b505af1158015612469573d6000803e3d6000fd5b505050505b508061247981614a67565b9150506123a9565b5061248e878588886135c7565b909350915060005b815181101561256e5760008282815181106124b3576124b36149d1565b602002602001015190506124df6002826affffffffffffffffffffff19166135a990919063ffffffff16565b1561255b576040517f973d8f99000000000000000000000000000000000000000000000000000000008152606082901c9063973d8f9990612528908c908c908c90600401614ad1565b600060405180830381600087803b15801561254257600080fd5b505af1158015612556573d6000803e3d6000fd5b505050505b508061256681614a67565b915050612496565b505094509492505050565b805160208201fd5b6040805160018082528183019092526000918291906020808301908036833701905050905082816000815181106125ba576125ba6149d1565b60209081029190910181019190915260408051613a3160f11b818401527f776f726c6400000000000000000000000000000000000000000000000000000060228201527f4e616d6573706163654f776e6572000000000000000000000000000000000000603082015281518082039093018352810190526000906117ad906126419061498c565b8360007e140100140000000000000000000000000000000000000000000000000000005b6000612692612674868661370f565b60ff858116601b0360080285901c1661268d8587612eb6565b613765565b95945050505050565b606082826040516020016126db9291909182527fffffffff0000000000000000000000000000000000000000000000000000000016602082015260240190565b604051602081830303815290604052905092915050565b857f8dbb3a9672eebfd3773e72dd9c102393436816d832c7ba9e1e1ac8fcadcac7a9868686866040516127289493929190614b41565b60405180910390a2613a3160f11b867fffff00000000000000000000000000000000000000000000000000000000000016036106e9576000612769876137b6565b905060005b815181101561284c57600082828151811061278b5761278b6149d1565b602002602001015190506127b76001826affffffffffffffffffffff19166135a990919063ffffffff16565b15612839576040517f57066c9c000000000000000000000000000000000000000000000000000000008152606082901c906357066c9c90612806908c908c908c908c908c908c90600401614b80565b600060405180830381600087803b15801561282057600080fd5b505af1158015612834573d6000803e3d6000fd5b505050505b508061284481614a67565b91505061276e565b506000612859888861370f565b90506000602087019050612871826000838a51613869565b600061287c856131a6565b111561290057600061288e8a8a613965565b878155905060208601915060008060005b6128a8886131a6565b8160ff1610156128fb576128bd8d8d836131f6565b92506128d88a8260ff166028026038011c64ffffffffff1690565b91506128e78360008785613869565b6128f18286614a9f565b945060010161289f565b505050505b60005b83518110156129e1576000848281518110612920576129206149d1565b6020026020010151905061294c6002826affffffffffffffffffffff19166135a990919063ffffffff16565b156129ce576040517f5b28cdaf000000000000000000000000000000000000000000000000000000008152606082901c90635b28cdaf9061299b908e908e908e908e908e908e90600401614b80565b600060405180830381600087803b1580156129b557600080fd5b505af11580156129c9573d6000803e3d6000fd5b505050505b50806129d981614a67565b915050612903565b50505050505050505050565b60006102a78251603881901b1790565b606081604051602001612a109190614bd9565b6040516020818303038152906040529050919050565b827f0e1f72f429eb97e64878619984a91e687ae91610348b9ff4216782cc96e49d0783604051612a569190614bf5565b60405180910390a2613a3160f11b837fffff0000000000000000000000000000000000000000000000000000000000001614612a9157505050565b6000612a9c846137b6565b905060005b8151811015612b79576000828281518110612abe57612abe6149d1565b60200260200101519050612aea6040826affffffffffffffffffffff19166135a990919063ffffffff16565b15612b66576040517f9faeaf45000000000000000000000000000000000000000000000000000000008152606082901c90639faeaf4590612b3390899089908990600401614c08565b600060405180830381600087803b158015612b4d57600080fd5b505af1158015612b61573d6000803e3d6000fd5b505050505b5080612b7181614a67565b915050612aa1565b506000612b86858561370f565b9050612bdf816000612b978661314a565b67ffffffffffffffff811115612baf57612baf6145b2565b6040519080825280601f01601f191660200182016040528015612bd9576020820181803683370190505b506139bb565b6000612bea846131a6565b1115612c0b576000612bfc8686613965565b9050612c098160206139cb565b505b60005b82518110156106e9576000838281518110612c2b57612c2b6149d1565b60200260200101519050612c576080826affffffffffffffffffffff19166135a990919063ffffffff16565b15612cd3576040517f83b5c95b000000000000000000000000000000000000000000000000000000008152606082901c906383b5c95b90612ca0908a908a908a90600401614c08565b600060405180830381600087803b158015612cba57600080fd5b505af1158015612cce573d6000803e3d6000fd5b505050505b5080612cde81614a67565b915050612c0e565b604051606083811b7fffffffffffffffffffffffffffffffffffffffff00000000000000000000000016602083015282151560f81b6034830152906035016126db565b60408051600180825281830190925260609160009190602080830190803683370190505090508281600081518110612d6357612d636149d1565b6020026020010181815250506000612d7d85836000613a08565b9050612692612d8f8260008451613a42565b613ad2565b604080516001808252818301909252600091602080830190803683370190505090508281600081518110612dca57612dca6149d1565b602002602001018181525050610a7384826000612de686613ae3565b613af3565b6000612df561218e565b90503073ffffffffffffffffffffffffffffffffffffffff821603612e2557612e2085858585613b2e565b610335565b6040517f150f326200000000000000000000000000000000000000000000000000000000815273ffffffffffffffffffffffffffffffffffffffff82169063150f326290612e7d908890889088908890600401614c31565b600060405180830381600087803b158015612e9757600080fd5b505af1158015612eab573d6000803e3d6000fd5b505050505050505050565b600080805b8360ff168110156107d757612edd60ff601b83900360080287901c1683614a9f565b915080612ee981614a67565b915050612ebb565b6000612efd858561370f565b9050847f8c0b5119d4cec7b284c6b1b39252a03d1e2f2d7451a5895562524c113bb952be858585604051612f3393929190614c65565b60405180910390a2613a3160f11b857fffff0000000000000000000000000000000000000000000000000000000000001614612f6f5750610a73565b6000612f7a866137b6565b905060005b8151811015613059576000828281518110612f9c57612f9c6149d1565b60200260200101519050612fc86004826affffffffffffffffffffff19166135a990919063ffffffff16565b15613046576040517f964f667d000000000000000000000000000000000000000000000000000000008152606082901c9063964f667d90613013908b908b908b908b90600401614c98565b600060405180830381600087803b15801561302d57600080fd5b505af1158015613041573d6000803e3d6000fd5b505050505b508061305181614a67565b915050612f7f565b5061306d828565ffffffffffff16856139bb565b60005b815181101561120657600082828151811061308d5761308d6149d1565b602002602001015190506130b96008826affffffffffffffffffffff19166135a990919063ffffffff16565b15613137576040517fa8ba8721000000000000000000000000000000000000000000000000000000008152606082901c9063a8ba872190613104908b908b908b908b90600401614c98565b600060405180830381600087803b15801561311e57600080fd5b505af1158015613132573d6000803e3d6000fd5b505050505b508061314281614a67565b915050613070565b6000600861315a60026020614cd1565b6131649190614ce4565b9190911c919050565b60608160000361318c575060408051602081019091526000815261238e565b6000613198858561370f565b905061269281846000613b69565b600060086001806131b960026020614cd1565b6131c39190614cd1565b6131cd9190614cd1565b6131d79190614ce4565b8260ff911c1692915050565b600061238e6131f28484613965565b5490565b6000838360405160200161320b929190614cfb565b604051602081830303815290604052805190602001208260f81b7effffffffffffffffffffffffffffffffffffffffffffffffffffffffffffff19167f3b4102da22e32d82fc925482184f16c09fd4281692720b87d124aef6da48a0f1181860001c90509392505050565b811561333b57602082106132a05760208204840193506020828161329c5761329c614d36565b0691505b811561333b5760208290036000818510156132e257507fffffffffffffffffffffffffffffffffffffffffffffffffffffffffffffffff600885021c1961330b565b507fffffffffffffffffffffffffffffffffffffffffffffffffffffffffffffffff600882021c195b8554600885021b81198451168282161784525081851161332c575050610a73565b50600194909401939283900392015b5b6020831061335d5783548152600190930192601f199092019160200161333c565b8215610a735760007fffffffffffffffffffffffffffffffffffffffffffffffffffffffffffffffff600885021c198251865482169119161782525050505050565b60006133cb827f01ffc9a7000000000000000000000000000000000000000000000000000000006133f8565b80156102a75750610ca0827fffffffff000000000000000000000000000000000000000000000000000000005b6040517fffffffff0000000000000000000000000000000000000000000000000000000082166024820152600090819060440160408051601f19818403018152919052602080820180517bffffffffffffffffffffffffffffffffffffffffffffffffffffffff167f01ffc9a700000000000000000000000000000000000000000000000000000000178152825192935060009283928392909183918a617530fa92503d915060005190508280156134b1575060208210155b80156134bd5750600081115b979650505050505050565b60408051600180825281830190925260609160009190602080830190803683370190505090508281600081518110613502576135026149d1565b60209081029190910181019190915260408051613a3160f11b928101929092527f776f726c6400000000000000000000000000000000000000000000000000000060228301527f53797374656d486f6f6b73000000000000000000000000000000000000000000603083015260009161359791015b60405160208183030381529060405261358f9061498c565b836000613a08565b9050610fc9612d8f8260008451613a42565b60008160ff16826135ba8560581c90565b1660ff1614905092915050565b600060606000806135d786610ca7565b909250905073ffffffffffffffffffffffffffffffffffffffff8216613635578561360187611348565b6040517ffbf10ce6000000000000000000000000000000000000000000000000000000008152600401610434929190614973565b80613644576136448689613b8c565b86156136b0577dffffffffffffffffffffffffffff0000000000000000000000000000000086167f6e7300000000000000000000000000000000000000000000000000000000000017600061369882613ba3565b90506136ad826136a88b84614a9f565b613c55565b50505b60006136bc8760101b90565b7fffffffffffffffffffffffffffff00000000000000000000000000000000000016146136f4576136ef88888488613d01565b613700565b61370088888488613d86565b90999098509650505050505050565b60008282604051602001613724929190614cfb565b60408051601f1981840301815291905280516020909101207f86425bff6b57326c7859e89024fe4f238ca327a1ae4a230180dd2f0e88aaa7d9189392505050565b60006020821061378b5760208204840193506020828161378757613787614d36565b0691505b508254600882021b6020829003808411156107d7576001850154600882021c82179150509392505050565b604080516001808252818301909252606091600091906020808301908036833701905050905082816000815181106137f0576137f06149d1565b60209081029190910181019190915260408051613a3160f11b928101929092527f73746f726500000000000000000000000000000000000000000000000000000060228301527f53746f7265486f6f6b730000000000000000000000000000000000000000000060308301526000916135979101613577565b821561390157602083106138935760208304840193506020838161388f5761388f614d36565b0692505b821561390157602083900360007fffffffffffffffffffffffffffffffffffffffffffffffffffffffffffffffff600884021c1990506008850281811c91508451811c90508119875416828216178755508183116138f2575050610a73565b50600194909401939182019190035b5b602081106139235781518455600190930192602090910190601f1901613902565b8015610a735760007fffffffffffffffffffffffffffffffffffffffffffffffffffffffffffffffff600883021c198554845182169119161785555050505050565b6000828260405160200161397a929190614cfb565b60408051601f1981840301815291905280516020909101207f14e2fcc58e58e68ec7edc30c8d50dccc3ce2714a623ec81f46b6a63922d76569189392505050565b6103388383602084018451613869565b600060206139da83601f614a9f565b6139e49190614d65565b6139ee9084614a9f565b90505b8083101561033857600083556001830192506139f1565b6060610fc9613a188585856131f6565b613a3b84613a2688886131e3565b9060ff166028026038011c64ffffffffff1690565b6000613b69565b6000818311158015613a55575083518211155b613a91578383836040517f23230fa300000000000000000000000000000000000000000000000000000000815260040161043493929190614da0565b60208401613a9f8482614a9f565b90506000613aad8585614cd1565b6fffffffffffffffffffffffffffffffff1660809290921b9190911795945050505050565b6060600061238e8360156000613df4565b60608161238e8160156000613e6f565b6000613aff85856131e3565b90506000613b1c828560ff166028026038011c64ffffffffff1690565b90506106e98686866000858888613ec3565b6000613b3a85856131e3565b90506000613b57828560ff166028026038011c64ffffffffff1690565b90506106e98686868460008888613ec3565b60405160208101601f19603f85840101166040528382526107d785858584613276565b613b9682826142f3565b61086a57610eea82611348565b604080516001808252818301909252600091829190602080830190803683370190505090508281600081518110613bdc57613bdc6149d1565b60209081029190910181019190915260408051613a3160f11b928101929092527f776f726c6400000000000000000000000000000000000000000000000000000060228301527f42616c616e6365730000000000000000000000000000000000000000000000006030830152600091610fc9910161158b565b604080516001808252818301909252600091602080830190803683370190505090508281600081518110613c8b57613c8b6149d1565b60209081029190910181019190915260408051613a3160f11b928101929092527f776f726c6400000000000000000000000000000000000000000000000000000060228301527f42616c616e63657300000000000000000000000000000000000000000000000060308301526103389101610c28565b600060608373ffffffffffffffffffffffffffffffffffffffff166000613d29858989614351565b604051613d369190614bd9565b60006040518083038185875af1925050503d8060008114613d73576040519150601f19603f3d011682016040523d82523d6000602084013e613d78565b606091505b509097909650945050505050565b600060608373ffffffffffffffffffffffffffffffffffffffff16613dac848888614351565b604051613db99190614bd9565b600060405180830381855af49150503d8060008114613d73576040519150601f19603f3d011682016040523d82523d6000602084013e613d78565b60606000613e028560801c90565b90506fffffffffffffffffffffffffffffffff85166000858281613e2857613e28614d36565b04905060405193506020840160208202810160405281855260005b82811015613e63578451871c825293870193602090910190600101613e43565b50505050509392505050565b82516060906000613e808583614ce4565b9050604051925060208301601f19603f83860101166040528184526000602088015b84821015613e63578051871b83529187019160019190910190602001613ea2565b613a3160f11b877fffff0000000000000000000000000000000000000000000000000000000000001614613f4d57613a3160f11b8788604051602001613f0b91815260200190565b60408051601f19818403018152908290527f31b46683000000000000000000000000000000000000000000000000000000008252610434939291600401614932565b6000613f68828760ff166028026038011c64ffffffffff1690565b9050600083518564ffffffffff1683613f819190614cd1565b613f8b9190614a9f565b9050808214158015613fad575081613fa38688614dc5565b64ffffffffff1614155b15613ffd576040517fa65010b400000000000000000000000000000000000000000000000000000000815264ffffffffff8088166004830152808716602483015283166044820152606401610434565b818664ffffffffff16111561404e576040517f7e8578d30000000000000000000000000000000000000000000000000000000081526004810183905264ffffffffff87166024820152604401610434565b600061405b848984614380565b905064ffffffffff871660005b8960ff168160ff16101561409b5761408f868260ff166028026038011c64ffffffffff1690565b90910190600101614068565b508a7faa63765a776145e5e6492f471ae097dfed11cd57a61bc2679dd43180422385b48b838a868b6040516140d4959493929190614dea565b60405180910390a25060006140e88b6137b6565b905060005b81518110156141ca57600082828151811061410a5761410a6149d1565b602002602001015190506141366010826affffffffffffffffffffff19166135a990919063ffffffff16565b156141b757606081901c73ffffffffffffffffffffffffffffffffffffffff166355eb5a288e8e8e8e8e8d8f6040518863ffffffff1660e01b81526004016141849796959493929190614e3c565b600060405180830381600087803b15801561419e57600080fd5b505af11580156141b2573d6000803e3d6000fd5b505050505b50806141c281614a67565b9150506140ed565b508284146141e35760006141de8c8c613965565b839055505b60006141f08c8c8c6131f6565b9050614204818a64ffffffffff16896139bb565b5060005b81518110156142e5576000828281518110614225576142256149d1565b602002602001015190506142516020826affffffffffffffffffffff19166135a990919063ffffffff16565b156142d257606081901c73ffffffffffffffffffffffffffffffffffffffff1663635845338e8e8e8e8e8a8f6040518863ffffffff1660e01b815260040161429f9796959493929190614e3c565b600060405180830381600087803b1580156142b957600080fd5b505af11580156142cd573d6000803e3d6000fd5b505050505b50806142dd81614a67565b915050614208565b505050505050505050505050565b60006143417f6e730000000000000000000000000000000000000000000000000000000000007dffffffffffffffffffffffffffff000000000000000000000000000000008516178361444e565b8061238e575061238e838361444e565b606083838360405160200161436893929190614e9a565b60405160208183030381529060405290509392505050565b600064ffffffffff8211156143c4576040517f4767058800000000000000000000000000000000000000000000000000000000815260048101839052602401610434565b8366ffffffffffffff811660ff851660280260380182901c64ffffffffff168085106143f657808503820191506143fe565b848103820391505b5064ffffffffff6038602860ff8816020181811b197fffffffffffffffffffffffffffffffffffffffffffffffffff000000000000009490941690921792909216918416901b1790509392505050565b604080516002808252606082018352600092839291906020830190803683370190505090508381600081518110614487576144876149d1565b6020026020010181815250508273ffffffffffffffffffffffffffffffffffffffff1660001b816001815181106144c0576144c06149d1565b60209081029190910181019190915260408051613a3160f11b928101929092527f776f726c6400000000000000000000000000000000000000000000000000000060228301527f5265736f7572636541636365737300000000000000000000000000000000000060308301526000916145399101611679565b90506126928160f81c90565b80357fffffffff00000000000000000000000000000000000000000000000000000000811681146121d557600080fd5b60006020828403121561458757600080fd5b61238e82614545565b73ffffffffffffffffffffffffffffffffffffffff8116811461095d57600080fd5b7f4e487b7100000000000000000000000000000000000000000000000000000000600052604160045260246000fd5b600082601f8301126145f257600080fd5b813567ffffffffffffffff8082111561460d5761460d6145b2565b604051601f8301601f19908116603f01168101908282118183101715614635576146356145b2565b8160405283815286602085880101111561464e57600080fd5b836020870160208301376000602085830101528094505050505092915050565b60008060006060848603121561468357600080fd5b833561468e81614590565b925060208401359150604084013567ffffffffffffffff8111156146b157600080fd5b6146bd868287016145e1565b9150509250925092565b600080604083850312156146da57600080fd5b82359150602083013567ffffffffffffffff8111156146f857600080fd5b614704858286016145e1565b9150509250929050565b60008060006060848603121561472357600080fd5b83359250602084013561473581614590565b91506040840135801515811461474a57600080fd5b809150509250925092565b60008060006060848603121561476a57600080fd5b83359250602084013567ffffffffffffffff81111561478857600080fd5b614794868287016145e1565b9250506147a360408501614545565b90509250925092565b600080604083850312156147bf57600080fd5b8235915060208301356147d181614590565b809150509250929050565b6000602082840312156147ee57600080fd5b5035919050565b60008060006060848603121561480a57600080fd5b8335925060208401359150604084013567ffffffffffffffff8111156146b157600080fd5b60008060006060848603121561484457600080fd5b83359250602084013561485681614590565b9150604084013560ff8116811461474a57600080fd5b60005b8381101561488757818101518382015260200161486f565b50506000910152565b600084516148a281846020890161486c565b80830190507f5f0000000000000000000000000000000000000000000000000000000000000080825285516148de816001850160208a0161486c565b600192019182015283516148f981600284016020880161486c565b0160020195945050505050565b6000815180845261491e81602086016020860161486c565b601f01601f19169290920160200192915050565b7fffff000000000000000000000000000000000000000000000000000000000000841681528260208201526060604082015260006126926060830184614906565b828152604060208201526000610fc96040830184614906565b805160208083015191908110156149cb577fffffffffffffffffffffffffffffffffffffffffffffffffffffffffffffffff8160200360031b1b821691505b50919050565b7f4e487b7100000000000000000000000000000000000000000000000000000000600052603260045260246000fd5b604081526000614a136040830185614906565b905073ffffffffffffffffffffffffffffffffffffffff831660208301529392505050565b7f4e487b7100000000000000000000000000000000000000000000000000000000600052601160045260246000fd5b60007fffffffffffffffffffffffffffffffffffffffffffffffffffffffffffffffff8203614a9857614a98614a38565b5060010190565b808201808211156102a7576102a7614a38565b600060ff821660ff8103614ac857614ac8614a38565b60010192915050565b73ffffffffffffffffffffffffffffffffffffffff841681528260208201526060604082015260006126926060830184614906565b600081518084526020808501945080840160005b83811015614b3657815187529582019590820190600101614b1a565b509495945050505050565b608081526000614b546080830187614b06565b8281036020840152614b668187614906565b905084604084015282810360608401526134bd8185614906565b86815260c060208201526000614b9960c0830188614b06565b8281036040840152614bab8188614906565b90508560608401528281036080840152614bc58186614906565b9150508260a0830152979650505050505050565b60008251614beb81846020870161486c565b9190910192915050565b60208152600061238e6020830184614b06565b838152606060208201526000614c216060830185614b06565b9050826040830152949350505050565b848152608060208201526000614c4a6080830186614b06565b60ff8516604084015282810360608401526134bd8185614906565b606081526000614c786060830186614b06565b65ffffffffffff851660208401528281036040840152610e5a8185614906565b848152608060208201526000614cb16080830186614b06565b65ffffffffffff8516604084015282810360608401526134bd8185614906565b818103818111156102a7576102a7614a38565b80820281158282048414176102a7576102a7614a38565b82815260006020808301845182860160005b82811015614d2957815184529284019290840190600101614d0d565b5091979650505050505050565b7f4e487b7100000000000000000000000000000000000000000000000000000000600052601260045260246000fd5b600082614d9b577f4e487b7100000000000000000000000000000000000000000000000000000000600052601260045260246000fd5b500490565b606081526000614db36060830186614906565b60208301949094525060400152919050565b64ffffffffff818116838216019080821115614de357614de3614a38565b5092915050565b60a081526000614dfd60a0830188614b06565b65ffffffffffff8716602084015264ffffffffff861660408401528460608401528281036080840152614e308185614906565b98975050505050505050565b87815260e060208201526000614e5560e0830189614b06565b60ff8816604084015264ffffffffff87811660608501528616608084015260a0830185905282810360c0840152614e8c8185614906565b9a9950505050505050505050565b60008451614eac81846020890161486c565b60609490941b7fffffffffffffffffffffffffffffffffffffffff000000000000000000000000169190930190815260148101919091526034019291505056fea2646970667358221220add79056a856903867269506b1de7fa7e7e96735c3dbf8955c455acb97c96cd664736f6c63430008150033","linkReferences":{}},"methodIdentifiers":{"_msgSender()":"119df25f","_msgValue()":"45ec9354","_world()":"e1af802c","registerDelegation(address,bytes32,bytes)":"1d2257ba","registerFunctionSelector(bytes32,string)":"26d98102","registerNamespace(bytes32)":"b29e4089","registerNamespaceDelegation(bytes32,bytes32,bytes)":"bfdfaff7","registerRootFunctionSelector(bytes32,string,bytes4)":"742d6118","registerSystem(bytes32,address,bool)":"3350b6a9","registerSystemHook(bytes32,address,uint8)":"d5f8337f","supportsInterface(bytes4)":"01ffc9a7","unregisterSystemHook(bytes32,address)":"a92813ad"},"id":67}